{
  "contractName": "DeviceManager",
  "abi": [
    {
      "inputs": [
        {
          "internalType": "address",
          "name": "",
          "type": "address"
        },
        {
          "internalType": "uint256",
          "name": "",
          "type": "uint256"
        }
      ],
      "name": "collections",
      "outputs": [
        {
          "internalType": "string",
          "name": "",
          "type": "string"
        }
      ],
      "stateMutability": "view",
      "type": "function",
      "constant": true
    },
    {
      "inputs": [
        {
          "internalType": "string",
          "name": "",
          "type": "string"
        }
      ],
      "name": "devices",
      "outputs": [
        {
          "internalType": "contract Device",
          "name": "",
          "type": "address"
        }
      ],
      "stateMutability": "view",
      "type": "function",
      "constant": true
    },
    {
      "inputs": [],
      "name": "initialized",
      "outputs": [
        {
          "internalType": "bool",
          "name": "",
          "type": "bool"
        }
      ],
      "stateMutability": "view",
      "type": "function",
      "constant": true
    },
    {
      "inputs": [],
      "name": "task_manager",
      "outputs": [
        {
          "internalType": "address",
          "name": "",
          "type": "address"
        }
      ],
      "stateMutability": "view",
      "type": "function",
      "constant": true
    },
    {
      "inputs": [
        {
          "internalType": "string",
          "name": "device_hash",
          "type": "string"
        }
      ],
      "name": "fetch_device",
      "outputs": [
        {
          "internalType": "contract Device",
          "name": "",
          "type": "address"
        }
      ],
      "stateMutability": "view",
      "type": "function",
      "constant": true
    },
    {
      "inputs": [
        {
          "internalType": "address",
          "name": "user",
          "type": "address"
        }
      ],
      "name": "fetch_collection",
      "outputs": [
        {
          "internalType": "string[]",
          "name": "",
          "type": "string[]"
        }
      ],
      "stateMutability": "view",
      "type": "function",
      "constant": true
    },
    {
      "inputs": [
        {
          "internalType": "string",
          "name": "device_hash",
          "type": "string"
        },
        {
          "internalType": "address",
          "name": "account",
          "type": "address"
        }
      ],
      "name": "create",
      "outputs": [],
      "stateMutability": "nonpayable",
      "type": "function"
    },
    {
      "inputs": [
        {
          "internalType": "address",
          "name": "_task_manager",
          "type": "address"
        }
      ],
      "name": "init",
      "outputs": [],
      "stateMutability": "nonpayable",
      "type": "function"
    },
    {
      "inputs": [
        {
          "internalType": "string",
          "name": "device_address",
          "type": "string"
        }
      ],
      "name": "exists",
      "outputs": [
        {
          "internalType": "bool",
          "name": "",
          "type": "bool"
        }
      ],
      "stateMutability": "view",
      "type": "function",
      "constant": true
    }
  ],
  "bytecode": "0x60806040526002805460ff1916905534801561001a57600080fd5b50610ed98061002a6000396000f3fe608060405234801561001057600080fd5b50600436106100935760003560e01c8063261a323e11610066578063261a323e1461010b57806349a764cd1461011e57806384b47b0f1461013e578063b17f7d3114610151578063e3a4f9261461015957610093565b8063158ef93e1461009857806319ab453c146100b65780631f3b23ce146100cb57806322233396146100eb575b600080fd5b6100a061016c565b6040516100ad91906107f2565b60405180910390f35b6100c96100c436600461063f565b610175565b005b6100de6100d936600461063f565b6101d0565b6040516100ad9190610792565b6100fe6100f936600461068b565b6102bf565b6040516100ad919061075b565b6100a061011936600461068b565b6102e5565b61013161012c366004610661565b610324565b6040516100ad91906107fd565b6100c961014c3660046106c6565b6103d8565b6100fe6104bf565b6100fe61016736600461068b565b6104d3565b60025460ff1681565b60025460ff16156101a15760405162461bcd60e51b815260040161019890610810565b60405180910390fd5b6002805460ff196001600160a01b0390931661010002610100600160a81b031990911617919091166001179055565b6001600160a01b0381166000908152600160209081526040808320805482518185028101850190935280835260609492939192909184015b828210156102b35760008481526020908190208301805460408051601f600260001961010060018716150201909416939093049283018590048502810185019091528181529283018282801561029f5780601f106102745761010080835404028352916020019161029f565b820191906000526020600020905b81548152906001019060200180831161028257829003601f168201915b505050505081526020019060010190610208565b5050505090505b919050565b80516020818301810180516000825292820191909301209152546001600160a01b031681565b600080826040516102f6919061073f565b908152604051908190036020019020546001600160a01b03161561031c575060016102ba565b5060006102ba565b6001602052816000526040600020818154811061033d57fe5b600091825260209182902001805460408051601f600260001961010060018716150201909416939093049283018590048502810185019091528181529450909250908301828280156103d05780601f106103a5576101008083540402835291602001916103d0565b820191906000526020600020905b8154815290600101906020018083116103b357829003601f168201915b505050505081565b60025460ff166103fa5760405162461bcd60e51b815260040161019890610855565b60003382600260019054906101000a90046001600160a01b031660405161042090610504565b61042c9392919061076f565b604051809103906000f080158015610448573d6000803e3d6000fd5b5090508060008460405161045c919061073f565b908152604080516020928190038301902080546001600160a01b0319166001600160a01b039490941693909317909255336000908152600180835292812080549384018155815281902085516104b9939190910191860190610511565b50505050565b60025461010090046001600160a01b031681565b600080826040516104e4919061073f565b908152604051908190036020019020546001600160a01b03169050919050565b6105e1806108c383390190565b828054600181600116156101000203166002900490600052602060002090601f016020900481019282601f1061055257805160ff191683800117855561057f565b8280016001018555821561057f579182015b8281111561057f578251825591602001919060010190610564565b5061058b92915061058f565b5090565b5b8082111561058b5760008155600101610590565b80356001600160a01b03811681146105bb57600080fd5b92915050565b600082601f8301126105d1578081fd5b813567ffffffffffffffff808211156105e8578283fd5b604051601f8301601f191681016020018281118282101715610608578485fd5b60405282815292508284830160200186101561062357600080fd5b8260208601602083013760006020848301015250505092915050565b600060208284031215610650578081fd5b61065a83836105a4565b9392505050565b60008060408385031215610673578081fd5b61067d84846105a4565b946020939093013593505050565b60006020828403121561069c578081fd5b813567ffffffffffffffff8111156106b2578182fd5b6106be848285016105c1565b949350505050565b600080604083850312156106d8578182fd5b823567ffffffffffffffff8111156106ee578283fd5b6106fa858286016105c1565b92505061070a84602085016105a4565b90509250929050565b6000815180845261072b816020860160208601610896565b601f01601f19169290920160200192915050565b60008251610751818460208701610896565b9190910192915050565b6001600160a01b0391909116815260200190565b6001600160a01b0393841681529183166020830152909116604082015260600190565b6000602080830181845280855180835260408601915060408482028701019250838701855b828110156107e557603f198886030184526107d3858351610713565b945092850192908501906001016107b7565b5092979650505050505050565b901515815260200190565b60006020825261065a6020830184610713565b60208082526025908201527f636f6e74726163742068617320616c7265616479206265656e20696e697469616040820152641b1a5e995960da1b606082015260800190565b60208082526021908201527f636f6e747261637420686173206e6f74206265656e20696e697469616c697a656040820152601960fa1b606082015260800190565b60005b838110156108b1578181015183820152602001610899565b838111156104b9575050600091015256fe608060405234801561001057600080fd5b506040516105e13803806105e18339818101604052606081101561003357600080fd5b5080516020820151604090920151600080546001600160a01b039384166001600160a01b03199182161790915560018054948416948216949094179093556004805492909116919092161790556105528061008f6000396000f3fe608060405234801561001057600080fd5b50600436106100935760003560e01c80633afd1b67116100665780633afd1b67146101325780635dab24201461013a57806389351aad146101425780638da5cb5b14610170578063b17f7d311461017857610093565b806302fb0c5e14610098578063176e8285146100b45780631b0c27da146100dc57806331c3a3e014610115575b600080fd5b6100a0610180565b604080519115158252519081900360200190f35b6100da600480360360208110156100ca57600080fd5b50356001600160a01b0316610190565b005b6100f9600480360360208110156100f257600080fd5b50356102af565b604080516001600160a01b039092168252519081900360200190f35b6100f96004803603602081101561012b57600080fd5b50356102d6565b6100da6102e3565b6100f9610357565b6100da6004803603604081101561015857600080fd5b506001600160a01b0381351690602001351515610366565b6100f96104fe565b6100f961050d565b600054600160a01b900460ff1681565b6004546001600160a01b031633146101e3576040805162461bcd60e51b81526020600482015260116024820152701c195c9b5a5cdcda5bdb8819195b9a5959607a1b604482015290519081900360640190fd5b6002805460018101825560008290527f405787fa12a823e0f2b7631cc41b3ba8828b3321ca811111fa75cd3aa3bb5ace0180546001600160a01b0319166001600160a01b03841617905560408051602080825283549082018190527f36cfd6bf224d6eb89053af919986dfda8d628ad350b25faf05eea36c223938b493928291908201908490801561029e57602002820191906000526020600020905b81546001600160a01b03168152600190910190602001808311610280575b50509250505060405180910390a150565b600381815481106102bc57fe5b6000918252602090912001546001600160a01b0316905081565b600281815481106102bc57fe5b6000546001600160a01b03163314610336576040805162461bcd60e51b81526020600482015260116024820152701c195c9b5a5cdcda5bdb8819195b9a5959607a1b604482015290519081900360640190fd5b6000805460ff60a01b198116600160a01b9182900460ff1615909102179055565b6001546001600160a01b031681565b6004546001600160a01b031633146103b9576040805162461bcd60e51b81526020600482015260116024820152701c195c9b5a5cdcda5bdb8819195b9a5959607a1b604482015290519081900360640190fd5b60005b6002548110156104f957826001600160a01b0316600282815481106103dd57fe5b6000918252602090912001546001600160a01b031614156104f1576002818154811061040557fe5b600091825260209091200180546001600160a01b0319169055811561047057600380546001810182556000919091527fc2575a0e9e593c00f959f8c92f12db2869c3395a3b0502d05e2516446f71f85b0180546001600160a01b0319166001600160a01b0385161790555b7f36cfd6bf224d6eb89053af919986dfda8d628ad350b25faf05eea36c223938b46002604051808060200182810382528381815481526020019150805480156104e257602002820191906000526020600020905b81546001600160a01b031681526001909101906020018083116104c4575b50509250505060405180910390a15b6001016103bc565b505050565b6000546001600160a01b031681565b6004546001600160a01b03168156fea2646970667358221220fcfb2f5442e1dbd97c65fa568f553cbfac0081e0c4b35c1858b4a5fb0936696864736f6c63430007000033a2646970667358221220abf46edacc571e2060386626ea26add450068459decf9e0a4171833341f175e664736f6c63430007000033",
  "immutableReferences": {},
  "source": "pragma solidity ^0.7.0;\npragma experimental ABIEncoderV2;\n// SPDX-License-Identifier: MIT\n\n// IMPORTS\nimport { Device } from './device.sol';\n\ncontract DeviceManager {\n\n    // MAP OF ALL DEVICES & DEVICE COLLECTIONS\n    mapping (string => Device) public devices;\n    mapping (address => string[]) public collections;\n\n    // INIT STATUS\n    bool public initialized = false;\n\n    // TASK MANAGER REF\n    address public task_manager;\n\n    // FETCH DEVICE CONTRACT\n    function fetch_device(string memory device_hash) public view returns(Device) {\n        return devices[device_hash];\n    }\n\n    // FETCH USER DEVICE COLLECTION\n    function fetch_collection(address user) public view returns(string[] memory) {\n        return collections[user];\n    }\n\n    // ADD NEW DEVICE\n    function create(string memory device_hash, address account) public {\n\n        // IF THE CONTRACT HAS BEEN INITIALIZED\n        require(initialized, 'contract has not been initialized');\n\n        // INSTANTIATE A NEW DEVICE\n        Device device = new Device(msg.sender, account, task_manager);\n\n        // PUSH IT TO BOTH CONTAINERS\n        devices[device_hash] = device;\n        collections[msg.sender].push(device_hash);\n    }\n\n    // INITIALIZE\n    function init(address _task_manager) public {\n\n        // IF THE CONTRACT HAS NOT BEEN INITIALIZED BEFORE\n        require(!initialized, 'contract has already been initialized');\n\n        // SET REF\n        task_manager = _task_manager;\n\n        // BLOCK FURTHER MODIFICATIONS\n        initialized = true;\n    }\n\n    // CHECK IF DEVICE EXISTS\n    function exists(string memory device_address) public view returns(bool) {\n        if (address(devices[device_address]) != 0x0000000000000000000000000000000000000000) {\n            return true;\n        } else {\n            return false;\n        }\n    }\n}",
  "sourcePath": "/home/wickstjo/coding/dlt-task-queue/contracts/device_manager.sol",
  "compiler": {
    "name": "solc",
    "version": "0.7.0+commit.9e61f92b.Emscripten.clang"
  },
  "schemaVersion": "3.3.3",
  "updatedAt": "2021-03-07T13:32:52.118Z",
  "networkType": "ethereum",
  "devdoc": {
    "kind": "dev",
    "methods": {},
    "version": 1
  },
  "userdoc": {
    "kind": "user",
    "methods": {},
    "version": 1
  }
}