{
  "contractName": "Device",
  "abi": [
    {
      "inputs": [
        {
          "internalType": "address",
          "name": "_owner",
          "type": "address"
        },
        {
          "internalType": "address",
          "name": "_account",
          "type": "address"
        },
        {
          "internalType": "address",
          "name": "_task_manager",
          "type": "address"
        }
      ],
      "stateMutability": "nonpayable",
      "type": "constructor"
    },
    {
      "anonymous": false,
      "inputs": [
        {
          "indexed": false,
          "internalType": "address[]",
          "name": "backlog",
          "type": "address[]"
        }
      ],
      "name": "modification",
      "type": "event"
    },
    {
      "inputs": [],
      "name": "account",
      "outputs": [
        {
          "internalType": "address",
          "name": "",
          "type": "address"
        }
      ],
      "stateMutability": "view",
      "type": "function"
    },
    {
      "inputs": [],
      "name": "active",
      "outputs": [
        {
          "internalType": "bool",
          "name": "",
          "type": "bool"
        }
      ],
      "stateMutability": "view",
      "type": "function"
    },
    {
      "inputs": [
        {
          "internalType": "uint256",
          "name": "",
          "type": "uint256"
        }
      ],
      "name": "backlog",
      "outputs": [
        {
          "internalType": "address",
          "name": "",
          "type": "address"
        }
      ],
      "stateMutability": "view",
      "type": "function"
    },
    {
      "inputs": [],
      "name": "owner",
      "outputs": [
        {
          "internalType": "address",
          "name": "",
          "type": "address"
        }
      ],
      "stateMutability": "view",
      "type": "function"
    },
    {
      "inputs": [
        {
          "internalType": "uint256",
          "name": "",
          "type": "uint256"
        }
      ],
      "name": "results",
      "outputs": [
        {
          "internalType": "address",
          "name": "",
          "type": "address"
        }
      ],
      "stateMutability": "view",
      "type": "function"
    },
    {
      "inputs": [],
      "name": "task_manager",
      "outputs": [
        {
          "internalType": "address",
          "name": "",
          "type": "address"
        }
      ],
      "stateMutability": "view",
      "type": "function"
    },
    {
      "inputs": [],
      "name": "toggle_active",
      "outputs": [],
      "stateMutability": "nonpayable",
      "type": "function"
    },
    {
      "inputs": [
        {
          "internalType": "address",
          "name": "_task",
          "type": "address"
        }
      ],
      "name": "assign_task",
      "outputs": [],
      "stateMutability": "nonpayable",
      "type": "function"
    },
    {
      "inputs": [
        {
          "internalType": "address",
          "name": "task_address",
          "type": "address"
        },
        {
          "internalType": "bool",
          "name": "approved",
          "type": "bool"
        }
      ],
      "name": "clear_task",
      "outputs": [],
      "stateMutability": "nonpayable",
      "type": "function"
    }
  ],
  "bytecode": "0x608060405234801561001057600080fd5b506040516105e13803806105e18339818101604052606081101561003357600080fd5b5080516020820151604090920151600080546001600160a01b039384166001600160a01b03199182161790915560018054948416948216949094179093556004805492909116919092161790556105528061008f6000396000f3fe608060405234801561001057600080fd5b50600436106100935760003560e01c80633afd1b67116100665780633afd1b67146101325780635dab24201461013a57806389351aad146101425780638da5cb5b14610170578063b17f7d311461017857610093565b806302fb0c5e14610098578063176e8285146100b45780631b0c27da146100dc57806331c3a3e014610115575b600080fd5b6100a0610180565b604080519115158252519081900360200190f35b6100da600480360360208110156100ca57600080fd5b50356001600160a01b0316610190565b005b6100f9600480360360208110156100f257600080fd5b50356102af565b604080516001600160a01b039092168252519081900360200190f35b6100f96004803603602081101561012b57600080fd5b50356102d6565b6100da6102e3565b6100f9610357565b6100da6004803603604081101561015857600080fd5b506001600160a01b0381351690602001351515610366565b6100f96104fe565b6100f961050d565b600054600160a01b900460ff1681565b6004546001600160a01b031633146101e3576040805162461bcd60e51b81526020600482015260116024820152701c195c9b5a5cdcda5bdb8819195b9a5959607a1b604482015290519081900360640190fd5b6002805460018101825560008290527f405787fa12a823e0f2b7631cc41b3ba8828b3321ca811111fa75cd3aa3bb5ace0180546001600160a01b0319166001600160a01b03841617905560408051602080825283549082018190527f36cfd6bf224d6eb89053af919986dfda8d628ad350b25faf05eea36c223938b493928291908201908490801561029e57602002820191906000526020600020905b81546001600160a01b03168152600190910190602001808311610280575b50509250505060405180910390a150565b600381815481106102bc57fe5b6000918252602090912001546001600160a01b0316905081565b600281815481106102bc57fe5b6000546001600160a01b03163314610336576040805162461bcd60e51b81526020600482015260116024820152701c195c9b5a5cdcda5bdb8819195b9a5959607a1b604482015290519081900360640190fd5b6000805460ff60a01b198116600160a01b9182900460ff1615909102179055565b6001546001600160a01b031681565b6004546001600160a01b031633146103b9576040805162461bcd60e51b81526020600482015260116024820152701c195c9b5a5cdcda5bdb8819195b9a5959607a1b604482015290519081900360640190fd5b60005b6002548110156104f957826001600160a01b0316600282815481106103dd57fe5b6000918252602090912001546001600160a01b031614156104f1576002818154811061040557fe5b600091825260209091200180546001600160a01b0319169055811561047057600380546001810182556000919091527fc2575a0e9e593c00f959f8c92f12db2869c3395a3b0502d05e2516446f71f85b0180546001600160a01b0319166001600160a01b0385161790555b7f36cfd6bf224d6eb89053af919986dfda8d628ad350b25faf05eea36c223938b46002604051808060200182810382528381815481526020019150805480156104e257602002820191906000526020600020905b81546001600160a01b031681526001909101906020018083116104c4575b50509250505060405180910390a15b6001016103bc565b505050565b6000546001600160a01b031681565b6004546001600160a01b03168156fea2646970667358221220fcfb2f5442e1dbd97c65fa568f553cbfac0081e0c4b35c1858b4a5fb0936696864736f6c63430007000033",
  "immutableReferences": {},
  "source": "pragma solidity ^0.7.0;\n// SPDX-License-Identifier: MIT\n\ncontract Device {\n\n    // THE OWNER OF THE DEVICE\n    address public owner;\n\n    // ACTIVE STATUS\n    bool public active;\n\n    // THE DEVICES UNIQUE ETH ACCOUNT\n    address public account;\n\n    // ITERABLE TASK BACKLOG\n    address[] public backlog;\n\n    // ITERABLE LIST OF TASK RESULTS\n    address[] public results;\n\n    // TASK MANAGER REFERENCE\n    address public task_manager;\n\n    // CONTRACT MODIFICATION EVENT\n    event modification(address[] backlog);\n\n    // UPON CREATION, SET STATIC PARAMS\n    constructor(\n        address _owner,\n        address _account,\n        address _task_manager\n    ) {\n        owner = _owner;\n        account = _account;\n        task_manager = _task_manager;\n    }\n\n    // TOGGLE ACTIVE STATUS\n    function toggle_active() public {\n\n        // IF THE SENDER IS THE OWNER\n        require(msg.sender == owner, 'permission denied');\n\n        // TOGGLE ACTIVE STATUS\n        active = !active;\n    }\n\n    // ASSIGN TASK TO DEVICE\n    function assign_task(address _task) public {\n\n        // IF THE SENDER IS THE TASK MANAGER\n        require(msg.sender == task_manager, 'permission denied');\n\n        // ADD TASK TO BACKLOG & EMIT EVENT\n        backlog.push(_task);\n        emit modification(backlog);\n    }\n\n    // CLEAR FINISHED TASK FROM BACKLOG\n    function clear_task(address task_address, bool approved) public {\n\n        // IF THE SENDER IS THE TASK MANAGER\n        require(msg.sender == task_manager, 'permission denied');\n\n        // LOOP & ATTEMPT TO FIND THE TASK\n        for(uint index = 0; index < backlog.length; index++) {\n\n            // IF ITS FOUND\n            if (address(backlog[index]) == task_address) {\n\n                // DELETE TARGET\n                delete backlog[index];\n\n                // ADD RESULT REFERENCE WHEN TASK MANAGER APPROVES IT\n                if (approved) {\n                    results.push(task_address);\n                }\n\n                // EMIT EVENT\n                emit modification(backlog);\n            }\n        }\n    }\n}",
  "sourcePath": "/home/wickstjo/coding/dlt-task-queue/contracts/device.sol",
  "compiler": {
    "name": "solc",
    "version": "0.7.0+commit.9e61f92b.Emscripten.clang"
  },
  "schemaVersion": "3.3.3",
  "updatedAt": "2021-03-07T13:26:48.597Z",
  "devdoc": {
    "kind": "dev",
    "methods": {},
    "version": 1
  },
  "userdoc": {
    "kind": "user",
    "methods": {},
    "version": 1
  }
}