{
  "contractName": "TaskManager",
  "abi": [
    {
      "inputs": [],
      "name": "device_manager",
      "outputs": [
        {
          "internalType": "contract DeviceManager",
          "name": "",
          "type": "address"
        }
      ],
      "stateMutability": "view",
      "type": "function",
      "constant": true
    },
    {
      "inputs": [],
      "name": "initialized",
      "outputs": [
        {
          "internalType": "bool",
          "name": "",
          "type": "bool"
        }
      ],
      "stateMutability": "view",
      "type": "function",
      "constant": true
    },
    {
      "inputs": [
        {
          "internalType": "address",
          "name": "",
          "type": "address"
        }
      ],
      "name": "results",
      "outputs": [
        {
          "internalType": "string",
          "name": "encryption_key",
          "type": "string"
        },
        {
          "internalType": "string",
          "name": "storage_location",
          "type": "string"
        }
      ],
      "stateMutability": "view",
      "type": "function",
      "constant": true
    },
    {
      "inputs": [
        {
          "internalType": "address",
          "name": "",
          "type": "address"
        }
      ],
      "name": "tasks",
      "outputs": [
        {
          "internalType": "contract Task",
          "name": "",
          "type": "address"
        }
      ],
      "stateMutability": "view",
      "type": "function",
      "constant": true
    },
    {
      "inputs": [
        {
          "internalType": "address",
          "name": "task",
          "type": "address"
        }
      ],
      "name": "fetch_task",
      "outputs": [
        {
          "internalType": "contract Task",
          "name": "",
          "type": "address"
        }
      ],
      "stateMutability": "view",
      "type": "function",
      "constant": true
    },
    {
      "inputs": [
        {
          "internalType": "address",
          "name": "task",
          "type": "address"
        }
      ],
      "name": "fetch_result",
      "outputs": [
        {
          "components": [
            {
              "internalType": "string",
              "name": "encryption_key",
              "type": "string"
            },
            {
              "internalType": "string",
              "name": "storage_location",
              "type": "string"
            }
          ],
          "internalType": "struct TaskManager.result",
          "name": "",
          "type": "tuple"
        }
      ],
      "stateMutability": "view",
      "type": "function",
      "constant": true
    },
    {
      "inputs": [
        {
          "internalType": "string",
          "name": "device",
          "type": "string"
        },
        {
          "internalType": "string",
          "name": "encryption_key",
          "type": "string"
        },
        {
          "internalType": "string",
          "name": "params",
          "type": "string"
        }
      ],
      "name": "create",
      "outputs": [],
      "stateMutability": "nonpayable",
      "type": "function"
    },
    {
      "inputs": [
        {
          "internalType": "address",
          "name": "task_address",
          "type": "address"
        },
        {
          "internalType": "string",
          "name": "encryption_key",
          "type": "string"
        },
        {
          "internalType": "string",
          "name": "storage_location",
          "type": "string"
        }
      ],
      "name": "complete",
      "outputs": [],
      "stateMutability": "nonpayable",
      "type": "function"
    },
    {
      "inputs": [
        {
          "internalType": "address",
          "name": "task_address",
          "type": "address"
        }
      ],
      "name": "dissolve",
      "outputs": [],
      "stateMutability": "nonpayable",
      "type": "function"
    },
    {
      "inputs": [
        {
          "internalType": "address",
          "name": "_device_manager",
          "type": "address"
        }
      ],
      "name": "init",
      "outputs": [],
      "stateMutability": "nonpayable",
      "type": "function"
    },
    {
      "inputs": [
        {
          "internalType": "address",
          "name": "_task",
          "type": "address"
        }
      ],
      "name": "exists",
      "outputs": [
        {
          "internalType": "bool",
          "name": "",
          "type": "bool"
        }
      ],
      "stateMutability": "view",
      "type": "function",
      "constant": true
    }
  ],
  "bytecode": "0x60806040526002805460ff1916905534801561001a57600080fd5b50611dbd8061002a6000396000f3fe60806040523480156200001157600080fd5b5060043610620000b85760003560e01c80639ea2bdaf116200007b5780639ea2bdaf146200015b578063b7f83f8d1462000172578063ef378f62146200017c578063efe9b08d14620001a3578063f6a3d24e14620001ba578063f772282c14620001d157620000b8565b8063158ef93e14620000bd57806319ab453c14620000df5780635d28560a14620000f857806377c237fd146200010f5780638d9ff2cf1462000135575b600080fd5b620000c7620001e8565b604051620000d6919062001425565b60405180910390f35b620000f6620000f0366004620011bd565b620001f1565b005b620000f6620001093660046200131c565b6200024f565b6200012662000120366004620011bd565b620006c3565b604051620000d691906200139b565b6200014c62000146366004620011bd565b620006de565b604051620000d6919062001646565b620000f66200016c36600462001202565b6200084b565b6200012662000c4a565b620001936200018d366004620011bd565b62000c5e565b604051620000d692919062001445565b620000f6620001b4366004620011bd565b62000da0565b620000c7620001cb366004620011bd565b6200104d565b62000126620001e2366004620011bd565b62001082565b60025460ff1681565b60025460ff1615620002205760405162461bcd60e51b815260040162000217906200146e565b60405180910390fd5b6002805460ff196001600160a01b0390931661010002610100600160a81b031990911617919091166001179055565b60025460ff16620002745760405162461bcd60e51b815260040162000217906200159f565b60025460405163130d191f60e11b81526101009091046001600160a01b03169063261a323e90620002aa90869060040162001430565b60206040518083038186803b158015620002c357600080fd5b505afa158015620002d8573d6000803e3d6000fd5b505050506040513d601f19601f82011682018060405250810190620002fe91906200127e565b6200031d5760405162461bcd60e51b81526004016200021790620014b3565b6002546040516371d27c9360e11b81526101009091046001600160a01b03169063e3a4f926906200035390869060040162001430565b60206040518083038186803b1580156200036c57600080fd5b505afa15801562000381573d6000803e3d6000fd5b505050506040513d601f19601f82011682018060405250810190620003a79190620011e3565b6001600160a01b0316638da5cb5b6040518163ffffffff1660e01b815260040160206040518083038186803b158015620003e057600080fd5b505afa158015620003f5573d6000803e3d6000fd5b505050506040513d601f19601f820116820180604052508101906200041b9190620011e3565b6001600160a01b0316336001600160a01b0316146200044e5760405162461bcd60e51b81526004016200021790620015e2565b6002546040516371d27c9360e11b81526101009091046001600160a01b03169063e3a4f926906200048490869060040162001430565b60206040518083038186803b1580156200049d57600080fd5b505afa158015620004b2573d6000803e3d6000fd5b505050506040513d601f19601f82011682018060405250810190620004d89190620011e3565b6001600160a01b03166302fb0c5e6040518163ffffffff1660e01b815260040160206040518083038186803b1580156200051157600080fd5b505afa15801562000526573d6000803e3d6000fd5b505050506040513d601f19601f820116820180604052508101906200054c91906200127e565b6200056b5760405162461bcd60e51b8152600401620002179062001568565b6000338484846040516200057f90620010a0565b6200058e9493929190620013af565b604051809103906000f080158015620005ab573d6000803e3d6000fd5b506001600160a01b038082166000818152602081905260409081902080546001600160a01b03191690921790915560025490516371d27c9360e11b81529293506101009004169063e3a4f926906200060890879060040162001430565b60206040518083038186803b1580156200062157600080fd5b505afa15801562000636573d6000803e3d6000fd5b505050506040513d601f19601f820116820180604052508101906200065c9190620011e3565b6001600160a01b031663176e8285826040518263ffffffff1660e01b81526004016200068991906200139b565b600060405180830381600087803b158015620006a457600080fd5b505af1158015620006b9573d6000803e3d6000fd5b5050505050505050565b6000602081905290815260409020546001600160a01b031681565b620006e8620010ae565b6001600160a01b0382166000908152600160208181526040928390208351815460029481161561010002600019011693909304601f81018390049092028301606090810185529383018281529293909284929091849190840182828015620007945780601f10620007685761010080835404028352916020019162000794565b820191906000526020600020905b8154815290600101906020018083116200077657829003601f168201915b50505050508152602001600182018054600181600116156101000203166002900480601f0160208091040260200160405190810160405280929190818152602001828054600181600116156101000203166002900480156200083a5780601f106200080e576101008083540402835291602001916200083a565b820191906000526020600020905b8154815290600101906020018083116200081c57829003601f168201915b50505050508152505090505b919050565b62000856836200104d565b620008755760405162461bcd60e51b8152600401620002179062001619565b6000620008828462001082565b9050600260019054906101000a90046001600160a01b03166001600160a01b031663e3a4f926826001600160a01b031663c6326dd06040518163ffffffff1660e01b815260040160006040518083038186803b158015620008e257600080fd5b505afa158015620008f7573d6000803e3d6000fd5b505050506040513d6000823e601f3d908101601f19168201604052620009219190810190620012a0565b6040518263ffffffff1660e01b81526004016200093f919062001430565b60206040518083038186803b1580156200095857600080fd5b505afa1580156200096d573d6000803e3d6000fd5b505050506040513d601f19601f82011682018060405250810190620009939190620011e3565b6001600160a01b0316635dab24206040518163ffffffff1660e01b815260040160206040518083038186803b158015620009cc57600080fd5b505afa158015620009e1573d6000803e3d6000fd5b505050506040513d601f19601f8201168201806040525081019062000a079190620011e3565b6001600160a01b0316336001600160a01b03161462000a3a5760405162461bcd60e51b81526004016200021790620014ea565b60408051808201825284815260208082018590526001600160a01b03871660009081526001825292909220815180519293919262000a7c9284920190620010c8565b50602082810151805162000a979260018501920190620010c8565b50905050600260019054906101000a90046001600160a01b03166001600160a01b031663e3a4f926826001600160a01b031663c6326dd06040518163ffffffff1660e01b815260040160006040518083038186803b15801562000af957600080fd5b505afa15801562000b0e573d6000803e3d6000fd5b505050506040513d6000823e601f3d908101601f1916820160405262000b389190810190620012a0565b6040518263ffffffff1660e01b815260040162000b56919062001430565b60206040518083038186803b15801562000b6f57600080fd5b505afa15801562000b84573d6000803e3d6000fd5b505050506040513d601f19601f8201168201806040525081019062000baa9190620011e3565b6001600160a01b03166389351aad8560016040518363ffffffff1660e01b815260040162000bda9291906200140a565b600060405180830381600087803b15801562000bf557600080fd5b505af115801562000c0a573d6000803e3d6000fd5b50505050806001600160a01b03166383197ef06040518163ffffffff1660e01b8152600401600060405180830381600087803b158015620006a457600080fd5b60025461010090046001600160a01b031681565b60016020818152600092835260409283902080548451600294821615610100026000190190911693909304601f810183900483028401830190945283835292839183018282801562000cf45780601f1062000cc85761010080835404028352916020019162000cf4565b820191906000526020600020905b81548152906001019060200180831162000cd657829003601f168201915b505050505090806001018054600181600116156101000203166002900480601f01602080910402602001604051908101604052809291908181526020018280546001816001161561010002031660029004801562000d965780601f1062000d6a5761010080835404028352916020019162000d96565b820191906000526020600020905b81548152906001019060200180831162000d7857829003601f168201915b5050505050905082565b62000dab816200104d565b62000dca5760405162461bcd60e51b8152600401620002179062001619565b600062000dd78262001082565b9050336001600160a01b0316816001600160a01b03166302d05d3f6040518163ffffffff1660e01b815260040160206040518083038186803b15801562000e1d57600080fd5b505afa15801562000e32573d6000803e3d6000fd5b505050506040513d601f19601f8201168201806040525081019062000e589190620011e3565b6001600160a01b03161462000e815760405162461bcd60e51b8152600401620002179062001531565b600260019054906101000a90046001600160a01b03166001600160a01b031663e3a4f926826001600160a01b031663c6326dd06040518163ffffffff1660e01b815260040160006040518083038186803b15801562000edf57600080fd5b505afa15801562000ef4573d6000803e3d6000fd5b505050506040513d6000823e601f3d908101601f1916820160405262000f1e9190810190620012a0565b6040518263ffffffff1660e01b815260040162000f3c919062001430565b60206040518083038186803b15801562000f5557600080fd5b505afa15801562000f6a573d6000803e3d6000fd5b505050506040513d601f19601f8201168201806040525081019062000f909190620011e3565b6001600160a01b03166389351aad8360006040518363ffffffff1660e01b815260040162000fc09291906200140a565b600060405180830381600087803b15801562000fdb57600080fd5b505af115801562000ff0573d6000803e3d6000fd5b50505050806001600160a01b03166383197ef06040518163ffffffff1660e01b8152600401600060405180830381600087803b1580156200103057600080fd5b505af115801562001045573d6000803e3d6000fd5b505050505050565b6001600160a01b0380821660009081526020819052604081205490911615620010795750600162000846565b50600062000846565b6001600160a01b039081166000908152602081905260409020541690565b61066b806200171d83390190565b604051806040016040528060608152602001606081525090565b828054600181600116156101000203166002900490600052602060002090601f016020900481019282601f106200110b57805160ff19168380011785556200113b565b828001600101855582156200113b579182015b828111156200113b5782518255916020019190600101906200111e565b50620011499291506200114d565b5090565b5b808211156200114957600081556001016200114e565b600082601f83011262001175578081fd5b81356200118c6200118682620016ab565b62001683565b9150808252836020828501011115620011a457600080fd5b8060208401602084013760009082016020015292915050565b600060208284031215620011cf578081fd5b8135620011dc8162001703565b9392505050565b600060208284031215620011f5578081fd5b8151620011dc8162001703565b60008060006060848603121562001217578182fd5b8335620012248162001703565b9250602084013567ffffffffffffffff8082111562001241578384fd5b6200124f8783880162001164565b9350604086013591508082111562001265578283fd5b50620012748682870162001164565b9150509250925092565b60006020828403121562001290578081fd5b81518015158114620011dc578182fd5b600060208284031215620012b2578081fd5b815167ffffffffffffffff811115620012c9578182fd5b8201601f81018413620012da578182fd5b8051620012eb6200118682620016ab565b81815285602083850101111562001300578384fd5b62001313826020830160208601620016d0565b95945050505050565b60008060006060848603121562001331578283fd5b833567ffffffffffffffff8082111562001349578485fd5b620013578783880162001164565b9450602086013591508082111562001241578384fd5b6000815180845262001387816020860160208601620016d0565b601f01601f19169290920160200192915050565b6001600160a01b0391909116815260200190565b6001600160a01b0385168152608060208201819052600090620013d5908301866200136d565b8281036040840152620013e981866200136d565b90508281036060840152620013ff81856200136d565b979650505050505050565b6001600160a01b039290921682521515602082015260400190565b901515815260200190565b600060208252620011dc60208301846200136d565b6000604082526200145a60408301856200136d565b82810360208401526200131381856200136d565b60208082526025908201527f636f6e74726163742068617320616c7265616479206265656e20696e697469616040820152641b1a5e995960da1b606082015260800190565b6020808252601c908201527f74686520646576696365206973206e6f74207265676973746572656400000000604082015260600190565b60208082526027908201527f746865207461736b206973206e6f742061737369676e656420746f20746869736040820152662064657669636560c81b606082015260800190565b6020808252601d908201527f796f7520617265206e6f7420746865207461736b732063726561746f72000000604082015260600190565b60208082526018908201527f74686520646576696365206973206e6f74206163746976650000000000000000604082015260600190565b60208082526023908201527f636f6e7472616374732068617665206e6f74206265656e20696e697469616c696040820152621e995960ea1b606082015260800190565b6020808252601c908201527f796f7520617265206e6f742074686520646576696365206f776e657200000000604082015260600190565b6020808252601390820152721d185cdac8191bd95cc81b9bdd08195e1a5cdd606a1b604082015260600190565b6000602082528251604060208401526200166460608401826200136d565b90506020840151601f198483030160408501526200131382826200136d565b60405181810167ffffffffffffffff81118282101715620016a357600080fd5b604052919050565b600067ffffffffffffffff821115620016c2578081fd5b50601f01601f191660200190565b60005b83811015620016ed578181015183820152602001620016d3565b83811115620016fd576000848401525b50505050565b6001600160a01b03811681146200171957600080fd5b5056fe608060405234801561001057600080fd5b5060405161066b38038061066b8339818101604052608081101561003357600080fd5b81516020830180516040519294929383019291908464010000000082111561005a57600080fd5b90830190602082018581111561006f57600080fd5b825164010000000081118282018810171561008957600080fd5b82525081516020918201929091019080838360005b838110156100b657818101518382015260200161009e565b50505050905090810190601f1680156100e35780820380516001836020036101000a031916815260200191505b506040526020018051604051939291908464010000000082111561010657600080fd5b90830190602082018581111561011b57600080fd5b825164010000000081118282018810171561013557600080fd5b82525081516020918201929091019080838360005b8381101561016257818101518382015260200161014a565b50505050905090810190601f16801561018f5780820380516001836020036101000a031916815260200191505b50604052602001805160405193929190846401000000008211156101b257600080fd5b9083019060208201858111156101c757600080fd5b82516401000000008111828201881017156101e157600080fd5b82525081516020918201929091019080838360005b8381101561020e5781810151838201526020016101f6565b50505050905090810190601f16801561023b5780820380516001836020036101000a031916815260200191505b506040525050600080546001600160a01b0319166001600160a01b0387161790555082516102709060019060208601906102b5565b5081516102849060029060208501906102b5565b5080516102989060039060208401906102b5565b5050600480546001600160a01b0319163317905550610348915050565b828054600181600116156101000203166002900490600052602060002090601f016020900481019282601f106102f657805160ff1916838001178555610323565b82800160010185558215610323579182015b82811115610323578251825591602001919060010190610308565b5061032f929150610333565b5090565b5b8082111561032f5760008155600101610334565b610314806103576000396000f3fe608060405234801561001057600080fd5b50600436106100625760003560e01c806302d05d3f146100675780633f1444b51461008b57806383197ef014610108578063b17f7d3114610112578063c6326dd01461011a578063cff0ab9614610122575b600080fd5b61006f61012a565b604080516001600160a01b039092168252519081900360200190f35b610093610139565b6040805160208082528351818301528351919283929083019185019080838360005b838110156100cd5781810151838201526020016100b5565b50505050905090810190601f1680156100fa5780820380516001836020036101000a031916815260200191505b509250505060405180910390f35b6101106101c4565b005b61006f61021a565b610093610229565b610093610283565b6000546001600160a01b031681565b6002805460408051602060018416156101000260001901909316849004601f810184900484028201840190925281815292918301828280156101bc5780601f10610191576101008083540402835291602001916101bc565b820191906000526020600020905b81548152906001019060200180831161019f57829003601f168201915b505050505081565b6004546001600160a01b03163314610217576040805162461bcd60e51b81526020600482015260116024820152701c195c9b5a5cdcda5bdb8819195b9a5959607a1b604482015290519081900360640190fd5b30ff5b6004546001600160a01b031681565b60018054604080516020600284861615610100026000190190941693909304601f810184900484028201840190925281815292918301828280156101bc5780601f10610191576101008083540402835291602001916101bc565b6003805460408051602060026001851615610100026000190190941693909304601f810184900484028201840190925281815292918301828280156101bc5780601f10610191576101008083540402835291602001916101bc56fea264697066735822122046283a8467b4b41c137281bbd0727d14823403c7e1ca76eaf07274a9e19ba24064736f6c63430007000033a2646970667358221220edd0fc3df3ad09912a1dee269c715b3156187c97d4602a6cabf2216163bce96964736f6c63430007000033",
  "immutableReferences": {},
  "source": "pragma solidity ^0.7.0;\npragma experimental ABIEncoderV2;\n// SPDX-License-Identifier: MIT\n\n// IMPORTS\nimport { Task } from './task.sol';\nimport { DeviceManager } from './device_manager.sol';\n\ncontract TaskManager {\n\n    // MAP OF TASKS & RESULTS\n    mapping (address => Task) public tasks;\n    mapping (address => result) public results;\n\n    // TASK RESULT PARAMS\n    struct result {\n        string encryption_key;\n        string storage_location;\n    }\n\n    // INIT STATUS\n    bool public initialized = false;\n\n    // DEVICE MANAGER REF\n    DeviceManager public device_manager;\n\n    // FETCH SPECIFIC TASK\n    function fetch_task(address task) public view returns(Task) {\n        return tasks[task];\n    }\n\n    // FETCH TASK RESULT\n    function fetch_result(address task) public view returns(result memory) {\n        return results[task];\n    }\n\n    // ADD NEW TASK\n    function create(\n        string memory device,\n        string memory encryption_key,\n        string memory params\n    ) public {\n\n        // IF CONTRACT HAS BEEN INITIALIZED\n        require(initialized, 'contracts have not been initialized');\n        \n        // IF THE DEVICE EXISTS\n        // IF THE DEVICE IS OWNED BY THE SENDER\n        // IF THE DEVICE IS SET TO ACTIVE\n        require(device_manager.exists(device), 'the device is not registered');\n        require(msg.sender == device_manager.fetch_device(device).owner(), 'you are not the device owner');\n        require(device_manager.fetch_device(device).active(), 'the device is not active');\n\n        // INSTANTIATE & INDEX NEW TASK\n        Task task = new Task(msg.sender, device, encryption_key, params);\n        tasks[address(task)] = task;\n\n        // ASSIGN THE TASK TO THE DEVICE\n        device_manager.fetch_device(device).assign_task(address(task));\n    }\n\n    // COMPLETE TASK BY SUBMITTING RESULT\n    function complete(\n        address task_address,\n        string memory encryption_key,\n        string memory storage_location\n    ) public {\n\n        // IF THE TASK EXISTS\n        require(exists(task_address), 'task does not exist');\n\n        // SHORTHAND FOR TASK\n        Task task = fetch_task(task_address);\n\n        // IF THE SENDER IS THE ASSIGNED DEVICE\n        require(msg.sender == device_manager.fetch_device(task.device()).account(), 'the task is not assigned to this device');\n\n        // CONSTRUCT & PUSH NEW RESULT\n        results[task_address] = result({\n            encryption_key: encryption_key,\n            storage_location: storage_location\n        });\n\n        // CLEAR TASK FROM DEVICE BACKLOG & DESTROY THE TASK\n        device_manager.fetch_device(task.device()).clear_task(task_address, true);\n        task.destroy();\n    }\n\n    // RELEASE THE TASK\n    function dissolve(address task_address) public {\n\n        // IF THE TASK EXISTS\n        require(exists(task_address), 'task does not exist');\n\n        // SHORTHAND FOR TASK\n        Task task = fetch_task(task_address);\n\n        // IF THE SENDER IS THE CREATOR\n        require(task.creator() == msg.sender, 'you are not the tasks creator');\n\n        // CLEAR TASK FROM DEVICE BACKLOG & DESTROY THE TASK\n        device_manager.fetch_device(task.device()).clear_task(task_address, false);\n        task.destroy();\n    }\n\n    // INITIALIZE\n    function init(address _device_manager) public {\n\n        // IF THE CONTRACT HAS NOT BEEN INITIALIZED\n        require(!initialized, 'contract has already been initialized');\n\n        // SET REF\n        device_manager = DeviceManager(_device_manager);\n\n        // BLOCK FURTHER MODIFICATION\n        initialized = true;\n    }\n\n    // CHECK IF TASK EXISTS\n    function exists(address _task) public view returns(bool) {\n        if (address(tasks[_task]) != 0x0000000000000000000000000000000000000000) {\n            return true;\n        } else {\n            return false;\n        }\n    }\n}",
  "sourcePath": "/home/wickstjo/coding/dlt-task-queue/contracts/task_manager.sol",
  "compiler": {
    "name": "solc",
    "version": "0.7.0+commit.9e61f92b.Emscripten.clang"
  },
  "schemaVersion": "3.3.3",
  "updatedAt": "2021-03-07T13:32:52.124Z",
  "networkType": "ethereum",
  "devdoc": {
    "kind": "dev",
    "methods": {},
    "version": 1
  },
  "userdoc": {
    "kind": "user",
    "methods": {},
    "version": 1
  }
}