{
  "contractName": "Task",
  "abi": [
    {
      "inputs": [
        {
          "internalType": "address",
          "name": "_creator",
          "type": "address"
        },
        {
          "internalType": "string",
          "name": "_device",
          "type": "string"
        },
        {
          "internalType": "string",
          "name": "_encryption_key",
          "type": "string"
        },
        {
          "internalType": "string",
          "name": "_params",
          "type": "string"
        }
      ],
      "stateMutability": "nonpayable",
      "type": "constructor"
    },
    {
      "inputs": [],
      "name": "creator",
      "outputs": [
        {
          "internalType": "address",
          "name": "",
          "type": "address"
        }
      ],
      "stateMutability": "view",
      "type": "function"
    },
    {
      "inputs": [],
      "name": "device",
      "outputs": [
        {
          "internalType": "string",
          "name": "",
          "type": "string"
        }
      ],
      "stateMutability": "view",
      "type": "function"
    },
    {
      "inputs": [],
      "name": "encryption_key",
      "outputs": [
        {
          "internalType": "string",
          "name": "",
          "type": "string"
        }
      ],
      "stateMutability": "view",
      "type": "function"
    },
    {
      "inputs": [],
      "name": "params",
      "outputs": [
        {
          "internalType": "string",
          "name": "",
          "type": "string"
        }
      ],
      "stateMutability": "view",
      "type": "function"
    },
    {
      "inputs": [],
      "name": "task_manager",
      "outputs": [
        {
          "internalType": "address",
          "name": "",
          "type": "address"
        }
      ],
      "stateMutability": "view",
      "type": "function"
    },
    {
      "inputs": [],
      "name": "destroy",
      "outputs": [],
      "stateMutability": "nonpayable",
      "type": "function"
    }
  ],
  "bytecode": "0x608060405234801561001057600080fd5b5060405161066b38038061066b8339818101604052608081101561003357600080fd5b81516020830180516040519294929383019291908464010000000082111561005a57600080fd5b90830190602082018581111561006f57600080fd5b825164010000000081118282018810171561008957600080fd5b82525081516020918201929091019080838360005b838110156100b657818101518382015260200161009e565b50505050905090810190601f1680156100e35780820380516001836020036101000a031916815260200191505b506040526020018051604051939291908464010000000082111561010657600080fd5b90830190602082018581111561011b57600080fd5b825164010000000081118282018810171561013557600080fd5b82525081516020918201929091019080838360005b8381101561016257818101518382015260200161014a565b50505050905090810190601f16801561018f5780820380516001836020036101000a031916815260200191505b50604052602001805160405193929190846401000000008211156101b257600080fd5b9083019060208201858111156101c757600080fd5b82516401000000008111828201881017156101e157600080fd5b82525081516020918201929091019080838360005b8381101561020e5781810151838201526020016101f6565b50505050905090810190601f16801561023b5780820380516001836020036101000a031916815260200191505b506040525050600080546001600160a01b0319166001600160a01b0387161790555082516102709060019060208601906102b5565b5081516102849060029060208501906102b5565b5080516102989060039060208401906102b5565b5050600480546001600160a01b0319163317905550610348915050565b828054600181600116156101000203166002900490600052602060002090601f016020900481019282601f106102f657805160ff1916838001178555610323565b82800160010185558215610323579182015b82811115610323578251825591602001919060010190610308565b5061032f929150610333565b5090565b5b8082111561032f5760008155600101610334565b610314806103576000396000f3fe608060405234801561001057600080fd5b50600436106100625760003560e01c806302d05d3f146100675780633f1444b51461008b57806383197ef014610108578063b17f7d3114610112578063c6326dd01461011a578063cff0ab9614610122575b600080fd5b61006f61012a565b604080516001600160a01b039092168252519081900360200190f35b610093610139565b6040805160208082528351818301528351919283929083019185019080838360005b838110156100cd5781810151838201526020016100b5565b50505050905090810190601f1680156100fa5780820380516001836020036101000a031916815260200191505b509250505060405180910390f35b6101106101c4565b005b61006f61021a565b610093610229565b610093610283565b6000546001600160a01b031681565b6002805460408051602060018416156101000260001901909316849004601f810184900484028201840190925281815292918301828280156101bc5780601f10610191576101008083540402835291602001916101bc565b820191906000526020600020905b81548152906001019060200180831161019f57829003601f168201915b505050505081565b6004546001600160a01b03163314610217576040805162461bcd60e51b81526020600482015260116024820152701c195c9b5a5cdcda5bdb8819195b9a5959607a1b604482015290519081900360640190fd5b30ff5b6004546001600160a01b031681565b60018054604080516020600284861615610100026000190190941693909304601f810184900484028201840190925281815292918301828280156101bc5780601f10610191576101008083540402835291602001916101bc565b6003805460408051602060026001851615610100026000190190941693909304601f810184900484028201840190925281815292918301828280156101bc5780601f10610191576101008083540402835291602001916101bc56fea264697066735822122046283a8467b4b41c137281bbd0727d14823403c7e1ca76eaf07274a9e19ba24064736f6c63430007000033",
  "immutableReferences": {},
  "source": "pragma solidity ^0.7.0;\n// SPDX-License-Identifier: MIT\n\ncontract Task {\n\n    // OWNER & ASSIGNED DEVICE\n    address public creator;\n    string public device;\n\n    // PUBLIC ENCRYPTION KEY & ADDITIONAL PARAMS\n    string public encryption_key;\n    string public params;\n\n    // TASK MANAGER REFERENCE\n    address public task_manager;\n\n    // WHEN CREATED..\n    constructor(\n        address _creator,\n        string memory _device,\n        string memory _encryption_key,\n        string memory _params\n    ) {\n\n        // SET STATIC PARAMS\n        creator = _creator;\n        device = _device;\n        encryption_key = _encryption_key;\n        params = _params;\n        task_manager = msg.sender;\n    }\n\n    // SELF DESTRUCT\n    function destroy() public {\n\n        // IF THE SENDER IS THE TASK MANAGER\n        require(msg.sender == task_manager, 'permission denied');\n\n        // DESTROY THE TASK\n        selfdestruct(address(uint160(address(this))));\n    }\n}",
  "sourcePath": "/home/wickstjo/coding/dlt-task-queue/contracts/task.sol",
  "compiler": {
    "name": "solc",
    "version": "0.7.0+commit.9e61f92b.Emscripten.clang"
  },
  "schemaVersion": "3.3.3",
  "updatedAt": "2021-03-07T13:26:48.600Z",
  "devdoc": {
    "kind": "dev",
    "methods": {},
    "version": 1
  },
  "userdoc": {
    "kind": "user",
    "methods": {},
    "version": 1
  }
}